{
  "contractName": "BreadShop",
  "abi": [
    {
      "inputs": [
        {
          "internalType": "address",
          "name": "",
          "type": "address"
        }
      ],
      "name": "breads",
      "outputs": [
        {
          "internalType": "uint256",
          "name": "",
          "type": "uint256"
        }
      ],
      "stateMutability": "view",
      "type": "function",
      "constant": true
    },
    {
      "inputs": [],
      "name": "buyBread",
      "outputs": [],
      "stateMutability": "payable",
      "type": "function",
      "payable": true
    },
    {
      "inputs": [
        {
          "internalType": "uint256",
          "name": "amount",
          "type": "uint256"
        }
      ],
      "name": "sellBread",
      "outputs": [],
      "stateMutability": "payable",
      "type": "function",
      "payable": true
    },
    {
      "inputs": [],
      "name": "getBread",
      "outputs": [
        {
          "internalType": "uint256",
          "name": "",
          "type": "uint256"
        }
      ],
      "stateMutability": "view",
      "type": "function",
      "constant": true
    },
    {
      "inputs": [],
      "name": "getSender",
      "outputs": [
        {
          "internalType": "address",
          "name": "",
          "type": "address"
        }
      ],
      "stateMutability": "view",
      "type": "function",
      "constant": true
    }
  ],
  "bytecode": "0x608060405234801561001057600080fd5b506104e4806100206000396000f3fe60806040526004361061004a5760003560e01c80632fad08dc1461004f5780635e01eb5a1461007a57806376165261146100a5578063e081aaa9146100c1578063e22d37fe146100fe575b600080fd5b34801561005b57600080fd5b50610064610108565b60405161007191906102a7565b60405180910390f35b34801561008657600080fd5b5061008f61014e565b60405161009c9190610303565b60405180910390f35b6100bf60048036038101906100ba919061034f565b610156565b005b3480156100cd57600080fd5b506100e860048036038101906100e391906103a8565b610209565b6040516100f591906102a7565b60405180910390f35b610106610221565b005b60008060003373ffffffffffffffffffffffffffffffffffffffff1673ffffffffffffffffffffffffffffffffffffffff16815260200190815260200160002054905090565b600033905090565b60016000803373ffffffffffffffffffffffffffffffffffffffff1673ffffffffffffffffffffffffffffffffffffffff16815260200190815260200160002060008282546101a59190610404565b925050819055503373ffffffffffffffffffffffffffffffffffffffff166108fc670de0b6b3a7640000836101da9190610438565b9081150290604051600060405180830381858888f19350505050158015610205573d6000803e3d6000fd5b5050565b60006020528060005260406000206000915090505481565b670de0b6b3a764000034101561023657600080fd5b60016000803373ffffffffffffffffffffffffffffffffffffffff1673ffffffffffffffffffffffffffffffffffffffff1681526020019081526020016000206000828254610285919061047a565b92505081905550565b6000819050919050565b6102a18161028e565b82525050565b60006020820190506102bc6000830184610298565b92915050565b600073ffffffffffffffffffffffffffffffffffffffff82169050919050565b60006102ed826102c2565b9050919050565b6102fd816102e2565b82525050565b600060208201905061031860008301846102f4565b92915050565b600080fd5b61032c8161028e565b811461033757600080fd5b50565b60008135905061034981610323565b92915050565b6000602082840312156103655761036461031e565b5b60006103738482850161033a565b91505092915050565b610385816102e2565b811461039057600080fd5b50565b6000813590506103a28161037c565b92915050565b6000602082840312156103be576103bd61031e565b5b60006103cc84828501610393565b91505092915050565b7f4e487b7100000000000000000000000000000000000000000000000000000000600052601160045260246000fd5b600061040f8261028e565b915061041a8361028e565b9250828203905081811115610432576104316103d5565b5b92915050565b60006104438261028e565b915061044e8361028e565b925082820261045c8161028e565b91508282048414831517610473576104726103d5565b5b5092915050565b60006104858261028e565b91506104908361028e565b92508282019050808211156104a8576104a76103d5565b5b9291505056fea2646970667358221220b5feb1ab8ef8b4114f7093fda818f4c8b91d770e1f5ea022d222e387624bca9d64736f6c63430008130033",
  "immutableReferences": {},
  "source": "// SPDX-License-Identifier: MIT\npragma solidity ^0.8.19;\n\ncontract BreadShop {\n  mapping(address => uint) public breads;\n\n  function buyBread() public payable {\n    require(msg.value >= 10 ** 18);\n    // if (msg.value > 2 * 10 ** 18) {\n    //   payable(msg.sender).transfer(2 * 10 ** 18 - msg.value);\n    // }\n    breads[msg.sender] += 1;\n  }\n\n  function sellBread(uint amount) public payable {\n    breads[msg.sender] -= 1;\n    payable(msg.sender).transfer(amount * 10 ** 18);\n  }\n\n  function getBread() public view returns (uint) {\n    return breads[msg.sender];\n  }\n\n  function getSender() public view returns (address) {\n    return msg.sender;\n  }\n}\n",
  "sourcePath": "/Users/ksj/Documents/GitHub/Blockchain77/New.No.091_0308/back/contracts/BreadShop.sol",
  "compiler": {
    "name": "solc",
    "version": "0.8.19+commit.7dd6d404.Emscripten.clang"
  },
  "schemaVersion": "3.4.13",
  "updatedAt": "2023-03-08T05:02:08.484Z",
  "networkType": "ethereum",
  "devdoc": {
    "kind": "dev",
    "methods": {},
    "version": 1
  },
  "userdoc": {
    "kind": "user",
    "methods": {},
    "version": 1
  }
}