{
  "contractName": "DogeToken",
  "abi": [
    {
      "inputs": [
        {
          "internalType": "string",
          "name": "_name",
          "type": "string"
        },
        {
          "internalType": "string",
          "name": "_symbol",
          "type": "string"
        },
        {
          "internalType": "uint256",
          "name": "_amount",
          "type": "uint256"
        }
      ],
      "stateMutability": "nonpayable",
      "type": "constructor"
    },
    {
      "anonymous": false,
      "inputs": [
        {
          "indexed": true,
          "internalType": "address",
          "name": "owner",
          "type": "address"
        },
        {
          "indexed": true,
          "internalType": "address",
          "name": "spender",
          "type": "address"
        },
        {
          "indexed": false,
          "internalType": "uint256",
          "name": "amount",
          "type": "uint256"
        }
      ],
      "name": "Approval",
      "type": "event"
    },
    {
      "anonymous": false,
      "inputs": [
        {
          "indexed": true,
          "internalType": "address",
          "name": "from",
          "type": "address"
        },
        {
          "indexed": true,
          "internalType": "address",
          "name": "to",
          "type": "address"
        },
        {
          "indexed": false,
          "internalType": "uint256",
          "name": "amount",
          "type": "uint256"
        }
      ],
      "name": "Transfer",
      "type": "event"
    },
    {
      "inputs": [
        {
          "internalType": "address",
          "name": "",
          "type": "address"
        },
        {
          "internalType": "address",
          "name": "",
          "type": "address"
        }
      ],
      "name": "allowance",
      "outputs": [
        {
          "internalType": "uint256",
          "name": "",
          "type": "uint256"
        }
      ],
      "stateMutability": "view",
      "type": "function",
      "constant": true
    },
    {
      "inputs": [
        {
          "internalType": "address",
          "name": "spender",
          "type": "address"
        },
        {
          "internalType": "uint256",
          "name": "amount",
          "type": "uint256"
        }
      ],
      "name": "approve",
      "outputs": [
        {
          "internalType": "bool",
          "name": "",
          "type": "bool"
        }
      ],
      "stateMutability": "nonpayable",
      "type": "function"
    },
    {
      "inputs": [
        {
          "internalType": "address",
          "name": "account",
          "type": "address"
        }
      ],
      "name": "balanceOf",
      "outputs": [
        {
          "internalType": "uint256",
          "name": "",
          "type": "uint256"
        }
      ],
      "stateMutability": "view",
      "type": "function",
      "constant": true
    },
    {
      "inputs": [
        {
          "internalType": "address",
          "name": "",
          "type": "address"
        }
      ],
      "name": "balances",
      "outputs": [
        {
          "internalType": "uint256",
          "name": "",
          "type": "uint256"
        }
      ],
      "stateMutability": "view",
      "type": "function",
      "constant": true
    },
    {
      "inputs": [],
      "name": "decimals",
      "outputs": [
        {
          "internalType": "uint8",
          "name": "",
          "type": "uint8"
        }
      ],
      "stateMutability": "view",
      "type": "function",
      "constant": true
    },
    {
      "inputs": [],
      "name": "ethCanBuy",
      "outputs": [
        {
          "internalType": "uint256",
          "name": "",
          "type": "uint256"
        }
      ],
      "stateMutability": "view",
      "type": "function",
      "constant": true
    },
    {
      "inputs": [],
      "name": "name",
      "outputs": [
        {
          "internalType": "string",
          "name": "",
          "type": "string"
        }
      ],
      "stateMutability": "view",
      "type": "function",
      "constant": true
    },
    {
      "inputs": [],
      "name": "owner",
      "outputs": [
        {
          "internalType": "address",
          "name": "",
          "type": "address"
        }
      ],
      "stateMutability": "view",
      "type": "function",
      "constant": true
    },
    {
      "inputs": [],
      "name": "symbol",
      "outputs": [
        {
          "internalType": "string",
          "name": "",
          "type": "string"
        }
      ],
      "stateMutability": "view",
      "type": "function",
      "constant": true
    },
    {
      "inputs": [],
      "name": "totalSupply",
      "outputs": [
        {
          "internalType": "uint256",
          "name": "",
          "type": "uint256"
        }
      ],
      "stateMutability": "view",
      "type": "function",
      "constant": true
    },
    {
      "inputs": [
        {
          "internalType": "address",
          "name": "recipient",
          "type": "address"
        },
        {
          "internalType": "uint256",
          "name": "amount",
          "type": "uint256"
        }
      ],
      "name": "transfer",
      "outputs": [
        {
          "internalType": "bool",
          "name": "",
          "type": "bool"
        }
      ],
      "stateMutability": "nonpayable",
      "type": "function"
    },
    {
      "inputs": [
        {
          "internalType": "address",
          "name": "sender",
          "type": "address"
        },
        {
          "internalType": "address",
          "name": "recipient",
          "type": "address"
        },
        {
          "internalType": "uint256",
          "name": "amount",
          "type": "uint256"
        }
      ],
      "name": "transferFrom",
      "outputs": [
        {
          "internalType": "bool",
          "name": "",
          "type": "bool"
        }
      ],
      "stateMutability": "nonpayable",
      "type": "function"
    },
    {
      "stateMutability": "payable",
      "type": "receive",
      "payable": true
    }
  ],
  "bytecode": "0x60806040526012600260006101000a81548160ff021916908360ff16021790555060646007553480156200003257600080fd5b5060405162001aff38038062001aff8339818101604052810190620000589190620003ad565b33600660006101000a81548173ffffffffffffffffffffffffffffffffffffffff021916908373ffffffffffffffffffffffffffffffffffffffff1602179055508260009081620000aa919062000688565b508160019081620000bc919062000688565b50620000f8600260009054906101000a900460ff16600a620000df9190620008ff565b82620000ec919062000950565b6200010160201b60201c565b50505062000a04565b80600460003373ffffffffffffffffffffffffffffffffffffffff1673ffffffffffffffffffffffffffffffffffffffff16815260200190815260200160002060008282546200015291906200099b565b9250508190555080600360008282546200016d91906200099b565b925050819055503373ffffffffffffffffffffffffffffffffffffffff16600073ffffffffffffffffffffffffffffffffffffffff167fddf252ad1be2c89b69c2b068fc378daa952ba7f163c4a11628f55a4df523b3ef83604051620001d49190620009e7565b60405180910390a350565b6000604051905090565b600080fd5b600080fd5b600080fd5b600080fd5b6000601f19601f8301169050919050565b7f4e487b7100000000000000000000000000000000000000000000000000000000600052604160045260246000fd5b6200024882620001fd565b810181811067ffffffffffffffff821117156200026a57620002696200020e565b5b80604052505050565b60006200027f620001df565b90506200028d82826200023d565b919050565b600067ffffffffffffffff821115620002b057620002af6200020e565b5b620002bb82620001fd565b9050602081019050919050565b60005b83811015620002e8578082015181840152602081019050620002cb565b60008484015250505050565b60006200030b620003058462000292565b62000273565b9050828152602081018484840111156200032a5762000329620001f8565b5b62000337848285620002c8565b509392505050565b600082601f830112620003575762000356620001f3565b5b815162000369848260208601620002f4565b91505092915050565b6000819050919050565b620003878162000372565b81146200039357600080fd5b50565b600081519050620003a7816200037c565b92915050565b600080600060608486031215620003c957620003c8620001e9565b5b600084015167ffffffffffffffff811115620003ea57620003e9620001ee565b5b620003f8868287016200033f565b935050602084015167ffffffffffffffff8111156200041c576200041b620001ee565b5b6200042a868287016200033f565b92505060406200043d8682870162000396565b9150509250925092565b600081519050919050565b7f4e487b7100000000000000000000000000000000000000000000000000000000600052602260045260246000fd5b600060028204905060018216806200049a57607f821691505b602082108103620004b057620004af62000452565b5b50919050565b60008190508160005260206000209050919050565b60006020601f8301049050919050565b600082821b905092915050565b6000600883026200051a7fffffffffffffffffffffffffffffffffffffffffffffffffffffffffffffffff82620004db565b620005268683620004db565b95508019841693508086168417925050509392505050565b6000819050919050565b600062000569620005636200055d8462000372565b6200053e565b62000372565b9050919050565b6000819050919050565b620005858362000548565b6200059d620005948262000570565b848454620004e8565b825550505050565b600090565b620005b4620005a5565b620005c18184846200057a565b505050565b5b81811015620005e957620005dd600082620005aa565b600181019050620005c7565b5050565b601f82111562000638576200060281620004b6565b6200060d84620004cb565b810160208510156200061d578190505b620006356200062c85620004cb565b830182620005c6565b50505b505050565b600082821c905092915050565b60006200065d600019846008026200063d565b1980831691505092915050565b60006200067883836200064a565b9150826002028217905092915050565b620006938262000447565b67ffffffffffffffff811115620006af57620006ae6200020e565b5b620006bb825462000481565b620006c8828285620005ed565b600060209050601f831160018114620007005760008415620006eb578287015190505b620006f785826200066a565b86555062000767565b601f1984166200071086620004b6565b60005b828110156200073a5784890151825560018201915060208501945060208101905062000713565b868310156200075a578489015162000756601f8916826200064a565b8355505b6001600288020188555050505b505050505050565b7f4e487b7100000000000000000000000000000000000000000000000000000000600052601160045260246000fd5b60008160011c9050919050565b6000808291508390505b6001851115620007fd57808604811115620007d557620007d46200076f565b5b6001851615620007e55780820291505b8081029050620007f5856200079e565b9450620007b5565b94509492505050565b600082620008185760019050620008eb565b81620008285760009050620008eb565b81600181146200084157600281146200084c5762000882565b6001915050620008eb565b60ff8411156200086157620008606200076f565b5b8360020a9150848211156200087b576200087a6200076f565b5b50620008eb565b5060208310610133831016604e8410600b8410161715620008bc5782820a905083811115620008b657620008b56200076f565b5b620008eb565b620008cb8484846001620007ab565b92509050818404811115620008e557620008e46200076f565b5b81810290505b9392505050565b600060ff82169050919050565b60006200090c8262000372565b91506200091983620008f2565b9250620009487fffffffffffffffffffffffffffffffffffffffffffffffffffffffffffffffff848462000806565b905092915050565b60006200095d8262000372565b91506200096a8362000372565b92508282026200097a8162000372565b915082820484148315176200099457620009936200076f565b5b5092915050565b6000620009a88262000372565b9150620009b58362000372565b9250828201905080821115620009d057620009cf6200076f565b5b92915050565b620009e18162000372565b82525050565b6000602082019050620009fe6000830184620009d6565b92915050565b6110eb8062000a146000396000f3fe6080604052600436106100ab5760003560e01c806331b0a2c61161006457806331b0a2c61461043057806370a082311461045b5780638da5cb5b1461049857806395d89b41146104c3578063a9059cbb146104ee578063dd62ed3e1461052b576102f3565b806306fdde03146102f8578063095ea7b31461032357806318160ddd1461036057806323b872dd1461038b57806327e235e3146103c8578063313ce56714610405576102f3565b366102f357600034036100bd57600080fd5b6000600754346100cd9190610ca9565b90508060046000600660009054906101000a900473ffffffffffffffffffffffffffffffffffffffff1673ffffffffffffffffffffffffffffffffffffffff1673ffffffffffffffffffffffffffffffffffffffff16815260200190815260200160002054101561013d57600080fd5b8060046000600660009054906101000a900473ffffffffffffffffffffffffffffffffffffffff1673ffffffffffffffffffffffffffffffffffffffff1673ffffffffffffffffffffffffffffffffffffffff16815260200190815260200160002060008282546101ae9190610ceb565b9250508190555080600460003373ffffffffffffffffffffffffffffffffffffffff1673ffffffffffffffffffffffffffffffffffffffff16815260200190815260200160002060008282546102049190610d1f565b92505081905550600660009054906101000a900473ffffffffffffffffffffffffffffffffffffffff1673ffffffffffffffffffffffffffffffffffffffff163373ffffffffffffffffffffffffffffffffffffffff160361026a5761026981610568565b5b3373ffffffffffffffffffffffffffffffffffffffff16600660009054906101000a900473ffffffffffffffffffffffffffffffffffffffff1673ffffffffffffffffffffffffffffffffffffffff167fddf252ad1be2c89b69c2b068fc378daa952ba7f163c4a11628f55a4df523b3ef836040516102e99190610d62565b60405180910390a3005b600080fd5b34801561030457600080fd5b5061030d610640565b60405161031a9190610e0d565b60405180910390f35b34801561032f57600080fd5b5061034a60048036038101906103459190610ebe565b6106ce565b6040516103579190610f19565b60405180910390f35b34801561036c57600080fd5b506103756107c0565b6040516103829190610d62565b60405180910390f35b34801561039757600080fd5b506103b260048036038101906103ad9190610f34565b6107c6565b6040516103bf9190610f19565b60405180910390f35b3480156103d457600080fd5b506103ef60048036038101906103ea9190610f87565b610a00565b6040516103fc9190610d62565b60405180910390f35b34801561041157600080fd5b5061041a610a18565b6040516104279190610fd0565b60405180910390f35b34801561043c57600080fd5b50610445610a2b565b6040516104529190610d62565b60405180910390f35b34801561046757600080fd5b50610482600480360381019061047d9190610f87565b610a31565b60405161048f9190610d62565b60405180910390f35b3480156104a457600080fd5b506104ad610a7a565b6040516104ba9190610ffa565b60405180910390f35b3480156104cf57600080fd5b506104d8610aa0565b6040516104e59190610e0d565b60405180910390f35b3480156104fa57600080fd5b5061051560048036038101906105109190610ebe565b610b2e565b6040516105229190610f19565b60405180910390f35b34801561053757600080fd5b50610552600480360381019061054d9190611015565b610c4b565b60405161055f9190610d62565b60405180910390f35b80600460003373ffffffffffffffffffffffffffffffffffffffff1673ffffffffffffffffffffffffffffffffffffffff16815260200190815260200160002060008282546105b79190610d1f565b9250508190555080600360008282546105d09190610d1f565b925050819055503373ffffffffffffffffffffffffffffffffffffffff16600073ffffffffffffffffffffffffffffffffffffffff167fddf252ad1be2c89b69c2b068fc378daa952ba7f163c4a11628f55a4df523b3ef836040516106359190610d62565b60405180910390a350565b6000805461064d90611084565b80601f016020809104026020016040519081016040528092919081815260200182805461067990611084565b80156106c65780601f1061069b576101008083540402835291602001916106c6565b820191906000526020600020905b8154815290600101906020018083116106a957829003601f168201915b505050505081565b600081600560003373ffffffffffffffffffffffffffffffffffffffff1673ffffffffffffffffffffffffffffffffffffffff16815260200190815260200160002060008573ffffffffffffffffffffffffffffffffffffffff1673ffffffffffffffffffffffffffffffffffffffff168152602001908152602001600020819055508273ffffffffffffffffffffffffffffffffffffffff163373ffffffffffffffffffffffffffffffffffffffff167f8c5be1e5ebec7d5bd14f71427d1e84f3dd0314c0f7b2291e5b200ac8c7c3b925846040516107ae9190610d62565b60405180910390a36001905092915050565b60035481565b600081600560008673ffffffffffffffffffffffffffffffffffffffff1673ffffffffffffffffffffffffffffffffffffffff16815260200190815260200160002060003373ffffffffffffffffffffffffffffffffffffffff1673ffffffffffffffffffffffffffffffffffffffff16815260200190815260200160002054101561085157600080fd5b81600560008673ffffffffffffffffffffffffffffffffffffffff1673ffffffffffffffffffffffffffffffffffffffff16815260200190815260200160002060003373ffffffffffffffffffffffffffffffffffffffff1673ffffffffffffffffffffffffffffffffffffffff16815260200190815260200160002060008282546108dd9190610ceb565b9250508190555081600460008673ffffffffffffffffffffffffffffffffffffffff1673ffffffffffffffffffffffffffffffffffffffff16815260200190815260200160002060008282546109339190610ceb565b9250508190555081600460008573ffffffffffffffffffffffffffffffffffffffff1673ffffffffffffffffffffffffffffffffffffffff16815260200190815260200160002060008282546109899190610d1f565b925050819055508273ffffffffffffffffffffffffffffffffffffffff168473ffffffffffffffffffffffffffffffffffffffff167fddf252ad1be2c89b69c2b068fc378daa952ba7f163c4a11628f55a4df523b3ef846040516109ed9190610d62565b60405180910390a3600190509392505050565b60046020528060005260406000206000915090505481565b600260009054906101000a900460ff1681565b60075481565b6000600460008373ffffffffffffffffffffffffffffffffffffffff1673ffffffffffffffffffffffffffffffffffffffff168152602001908152602001600020549050919050565b600660009054906101000a900473ffffffffffffffffffffffffffffffffffffffff1681565b60018054610aad90611084565b80601f0160208091040260200160405190810160405280929190818152602001828054610ad990611084565b8015610b265780601f10610afb57610100808354040283529160200191610b26565b820191906000526020600020905b815481529060010190602001808311610b0957829003601f168201915b505050505081565b600081600460003373ffffffffffffffffffffffffffffffffffffffff1673ffffffffffffffffffffffffffffffffffffffff1681526020019081526020016000206000828254610b7f9190610ceb565b9250508190555081600460008573ffffffffffffffffffffffffffffffffffffffff1673ffffffffffffffffffffffffffffffffffffffff1681526020019081526020016000206000828254610bd59190610d1f565b925050819055508273ffffffffffffffffffffffffffffffffffffffff163373ffffffffffffffffffffffffffffffffffffffff167fddf252ad1be2c89b69c2b068fc378daa952ba7f163c4a11628f55a4df523b3ef84604051610c399190610d62565b60405180910390a36001905092915050565b6005602052816000526040600020602052806000526040600020600091509150505481565b6000819050919050565b7f4e487b7100000000000000000000000000000000000000000000000000000000600052601160045260246000fd5b6000610cb482610c70565b9150610cbf83610c70565b9250828202610ccd81610c70565b91508282048414831517610ce457610ce3610c7a565b5b5092915050565b6000610cf682610c70565b9150610d0183610c70565b9250828203905081811115610d1957610d18610c7a565b5b92915050565b6000610d2a82610c70565b9150610d3583610c70565b9250828201905080821115610d4d57610d4c610c7a565b5b92915050565b610d5c81610c70565b82525050565b6000602082019050610d776000830184610d53565b92915050565b600081519050919050565b600082825260208201905092915050565b60005b83811015610db7578082015181840152602081019050610d9c565b60008484015250505050565b6000601f19601f8301169050919050565b6000610ddf82610d7d565b610de98185610d88565b9350610df9818560208601610d99565b610e0281610dc3565b840191505092915050565b60006020820190508181036000830152610e278184610dd4565b905092915050565b600080fd5b600073ffffffffffffffffffffffffffffffffffffffff82169050919050565b6000610e5f82610e34565b9050919050565b610e6f81610e54565b8114610e7a57600080fd5b50565b600081359050610e8c81610e66565b92915050565b610e9b81610c70565b8114610ea657600080fd5b50565b600081359050610eb881610e92565b92915050565b60008060408385031215610ed557610ed4610e2f565b5b6000610ee385828601610e7d565b9250506020610ef485828601610ea9565b9150509250929050565b60008115159050919050565b610f1381610efe565b82525050565b6000602082019050610f2e6000830184610f0a565b92915050565b600080600060608486031215610f4d57610f4c610e2f565b5b6000610f5b86828701610e7d565b9350506020610f6c86828701610e7d565b9250506040610f7d86828701610ea9565b9150509250925092565b600060208284031215610f9d57610f9c610e2f565b5b6000610fab84828501610e7d565b91505092915050565b600060ff82169050919050565b610fca81610fb4565b82525050565b6000602082019050610fe56000830184610fc1565b92915050565b610ff481610e54565b82525050565b600060208201905061100f6000830184610feb565b92915050565b6000806040838503121561102c5761102b610e2f565b5b600061103a85828601610e7d565b925050602061104b85828601610e7d565b9150509250929050565b7f4e487b7100000000000000000000000000000000000000000000000000000000600052602260045260246000fd5b6000600282049050600182168061109c57607f821691505b6020821081036110af576110ae611055565b5b5091905056fea264697066735822122040cdad9612a79a8a542695c9e71848424216bd3074fe781ff1e29ccba2f7b1a264736f6c63430008130033",
  "immutableReferences": {},
  "source": "// SPDX-License-Identifier: MIT\npragma solidity ^0.8.19;\n\nimport \"./ERC20.sol\";\n\ncontract DogeToken is ERC20 {\n  address public owner;\n  uint256 public ethCanBuy = 100;\n\n  constructor(string memory _name, string memory _symbol, uint256 _amount) {\n    owner = msg.sender;\n    name = _name;\n    symbol = _symbol;\n\n    mint(_amount * 10 ** decimals);\n  }\n\n  receive() external payable {\n    require(msg.value != 0);\n    uint amount = msg.value * ethCanBuy;\n\n    require(balances[owner] >= amount);\n    balances[owner] -= amount;\n    balances[msg.sender] += amount;\n\n    if (msg.sender == owner) {\n      mint(amount);\n    }\n\n    emit Transfer(owner, msg.sender, amount);\n  }\n}\n",
  "sourcePath": "/Users/ksj/Documents/GitHub/Blockchain77/New.No.092_0309/contracts/DogeToken.sol",
  "compiler": {
    "name": "solc",
    "version": "0.8.19+commit.7dd6d404.Emscripten.clang"
  },
  "schemaVersion": "3.4.13",
  "updatedAt": "2023-03-09T03:14:32.445Z",
  "networkType": "ethereum",
  "devdoc": {
    "kind": "dev",
    "methods": {},
    "version": 1
  },
  "userdoc": {
    "kind": "user",
    "methods": {},
    "version": 1
  }
}